{
  "contractName": "Hasher",
  "abi": [
    {
      "constant": true,
      "inputs": [
        {
          "internalType": "uint256[]",
          "name": "array",
          "type": "uint256[]"
        },
        {
          "internalType": "uint256",
          "name": "key",
          "type": "uint256"
        }
      ],
      "name": "hashMulti",
      "outputs": [
        {
          "internalType": "uint256",
          "name": "",
          "type": "uint256"
        }
      ],
      "payable": false,
      "stateMutability": "pure",
      "type": "function"
    },
    {
      "constant": true,
      "inputs": [
        {
          "internalType": "uint256",
          "name": "left",
          "type": "uint256"
        },
        {
          "internalType": "uint256",
          "name": "right",
          "type": "uint256"
        }
      ],
      "name": "hashPair",
      "outputs": [
        {
          "internalType": "uint256",
          "name": "",
          "type": "uint256"
        }
      ],
      "payable": false,
      "stateMutability": "pure",
      "type": "function"
    },
    {
      "constant": true,
      "inputs": [
        {
          "internalType": "uint256",
          "name": "publicKeyX",
          "type": "uint256"
        },
        {
          "internalType": "uint256",
          "name": "publicKeyY",
          "type": "uint256"
        },
        {
          "internalType": "uint256",
          "name": "balance",
          "type": "uint256"
        },
        {
          "internalType": "uint256",
          "name": "nonce",
          "type": "uint256"
        }
      ],
      "name": "hashBalanceTreeLeaf",
      "outputs": [
        {
          "internalType": "uint256",
          "name": "",
          "type": "uint256"
        }
      ],
      "payable": false,
      "stateMutability": "pure",
      "type": "function"
    }
  ],
  "bytecode": "0x608060405234801561001057600080fd5b50610455806100206000396000f3fe608060405234801561001057600080fd5b50600436106100415760003560e01c806366d82b2b146100465780636895e8dc14610092578063c73f4f9a14610168575b600080fd5b61007c6004803603604081101561005c57600080fd5b8101908080359060200190929190803590602001909291905050506101c8565b6040518082815260200191505060405180910390f35b610152600480360360408110156100a857600080fd5b81019080803590602001906401000000008111156100c557600080fd5b8201836020820111156100d757600080fd5b803590602001918460208302840111640100000000831117156100f957600080fd5b919080806020026020016040519081016040528093929190818152602001838360200280828437600081840152601f19601f82011690508083019250505050505050919291929080359060200190929190505050610247565b6040518082815260200191505060405180910390f35b6101b26004803603608081101561017e57600080fd5b810190808035906020019092919080359060200190929190803590602001909291908035906020019092919050505061036b565b6040518082815260200191505060405180910390f35b6000606060026040519080825280602002602001820160405280156101fc5781602001602082028038833980820191505090505b509050838160008151811061020d57fe5b602002602001018181525050828160018151811061022757fe5b60200260200101818152505061023e816000610247565b91505092915050565b6000807f30644e72e131a029b85045b68181585d2833e84879b9709143e1f593f000000190506000809050600080905060008090505b865181101561035e57838061028e57fe5b87828151811061029a57fe5b60200260200101518408925073__CircomLib_____________________________633f1a11878484896040518463ffffffff1660e01b8152600401808481526020018381526020018281526020019350505050604080518083038186803b15801561030457600080fd5b505af4158015610318573d6000803e3d6000fd5b505050506040513d604081101561032e57600080fd5b8101908080519060200190929190805190602001909291905050508093508194505050808060010191505061027d565b5081935050505092915050565b60006060600460405190808252806020026020018201604052801561039f5781602001602082028038833980820191505090505b50905085816000815181106103b057fe5b60200260200101818152505084816001815181106103ca57fe5b60200260200101818152505083816002815181106103e457fe5b60200260200101818152505082816003815181106103fe57fe5b602002602001018181525050610415816000610247565b91505094935050505056fea265627a7a72315820cf15d5e697d77f056092c0794366fcfd917f7762663ebd21d52ab7b8fa80ba8a64736f6c634300050c0032",
  "source": "library CircomLib {\n  function MiMCSponge(uint256 xL_in, uint256 xR_in, uint256 k)\n    public\n    pure\n    returns (uint256 xL, uint256 xR);\n}\n\ncontract Hasher {\n  function hashMulti(uint256[] memory array, uint256 key)\n    public\n    pure\n    returns (uint256)\n  {\n    uint256 k = 21888242871839275222246405745257275088548364400416034343698204186575808495617;\n    uint256 R = 0;\n    uint256 C = 0;\n\n    for (uint256 i = 0; i < array.length; i++) {\n      R = addmod(R, array[i], k);\n      (R, C) = CircomLib.MiMCSponge(R, C, key);\n    }\n\n    return R;\n  }\n\n  function hashPair(uint256 left, uint256 right) public pure returns (uint256) {\n    uint256[] memory arr = new uint256[](2);\n    arr[0] = left;\n    arr[1] = right;\n\n    return hashMulti(arr, 0);\n  }\n\n  function hashBalanceTreeLeaf(\n    uint256 publicKeyX,\n    uint256 publicKeyY,\n    uint256 balance,\n    uint256 nonce\n  ) public pure returns (uint256) {\n    uint256[] memory arr = new uint256[](4);\n    arr[0] = publicKeyX;\n    arr[1] = publicKeyY;\n    arr[2] = balance;\n    arr[3] = nonce;\n\n    return hashMulti(arr, 0);\n  }\n}\n",
  "sourcePath": "/Users/veronicazheng/src/learn-test/contracts/Hasher.sol",
  "compiler": {
    "name": "solc",
    "version": "0.5.12+commit.7709ece9.Emscripten.clang"
  },
  "schemaVersion": "3.0.19",
  "updatedAt": "2020-10-27T04:30:23.182Z",
  "networkType": "ethereum",
  "devdoc": {
    "methods": {}
  },
  "userdoc": {
    "methods": {}
  }
}