{
  "contractName": "Hasher",
  "abi": [
    {
      "inputs": [
        {
          "internalType": "uint256[]",
          "name": "array",
          "type": "uint256[]"
        },
        {
          "internalType": "uint256",
          "name": "key",
          "type": "uint256"
        }
      ],
      "name": "hashMulti",
      "outputs": [
        {
          "internalType": "uint256",
          "name": "",
          "type": "uint256"
        }
      ],
      "stateMutability": "pure",
      "type": "function",
      "constant": true
    },
    {
      "inputs": [
        {
          "internalType": "uint256",
          "name": "left",
          "type": "uint256"
        },
        {
          "internalType": "uint256",
          "name": "right",
          "type": "uint256"
        }
      ],
      "name": "hashPair",
      "outputs": [
        {
          "internalType": "uint256",
          "name": "",
          "type": "uint256"
        }
      ],
      "stateMutability": "pure",
      "type": "function",
      "constant": true
    },
    {
      "inputs": [
        {
          "internalType": "uint256",
          "name": "publicKeyX",
          "type": "uint256"
        },
        {
          "internalType": "uint256",
          "name": "publicKeyY",
          "type": "uint256"
        },
        {
          "internalType": "uint256",
          "name": "balance",
          "type": "uint256"
        },
        {
          "internalType": "uint256",
          "name": "nonce",
          "type": "uint256"
        }
      ],
      "name": "hashBalanceTreeLeaf",
      "outputs": [
        {
          "internalType": "uint256",
          "name": "",
          "type": "uint256"
        }
      ],
      "stateMutability": "pure",
      "type": "function",
      "constant": true
    }
  ],
  "bytecode": "0x608060405234801561001057600080fd5b5061063b806100206000396000f3fe608060405234801561001057600080fd5b50600436106100415760003560e01c806366d82b2b146100465780636895e8dc14610076578063c73f4f9a146100a6575b600080fd5b610060600480360381019061005b9190610444565b6100d6565b60405161006d919061053d565b60405180910390f35b610090600480360381019061008b91906103f0565b61016c565b60405161009d919061053d565b60405180910390f35b6100c060048036038101906100bb91906104bc565b610277565b6040516100cd919061053d565b60405180910390f35b60006060600267ffffffffffffffff811180156100f257600080fd5b506040519080825280602002602001820160405280156101215781602001602082028036833780820191505090505b509050838160008151811061013257fe5b602002602001018181525050828160018151811061014c57fe5b60200260200101818152505061016381600061016c565b91505092915050565b6000807f30644e72e131a029b85045b68181585d2833e84879b9709143e1f593f000000190506000809050600080905060008090505b865181101561026a5783806101b357fe5b8782815181106101bf57fe5b60200260200101518408925073__CircomLib_____________________________633f1a11878484896040518463ffffffff1660e01b815260040161020693929190610558565b604080518083038186803b15801561021d57600080fd5b505af4158015610231573d6000803e3d6000fd5b505050506040513d601f19601f820116820180604052508101906102559190610480565b809350819450505080806001019150506101a2565b5081935050505092915050565b60006060600467ffffffffffffffff8111801561029357600080fd5b506040519080825280602002602001820160405280156102c25781602001602082028036833780820191505090505b50905085816000815181106102d357fe5b60200260200101818152505084816001815181106102ed57fe5b602002602001018181525050838160028151811061030757fe5b602002602001018181525050828160038151811061032157fe5b60200260200101818152505061033881600061016c565b915050949350505050565b600082601f83011261035457600080fd5b8135610367610362826105bc565b61058f565b9150818183526020840193506020810190508385602084028201111561038c57600080fd5b60005b838110156103bc57816103a288826103c6565b84526020840193506020830192505060018101905061038f565b5050505092915050565b6000813590506103d5816105ee565b92915050565b6000815190506103ea816105ee565b92915050565b6000806040838503121561040357600080fd5b600083013567ffffffffffffffff81111561041d57600080fd5b61042985828601610343565b925050602061043a858286016103c6565b9150509250929050565b6000806040838503121561045757600080fd5b6000610465858286016103c6565b9250506020610476858286016103c6565b9150509250929050565b6000806040838503121561049357600080fd5b60006104a1858286016103db565b92505060206104b2858286016103db565b9150509250929050565b600080600080608085870312156104d257600080fd5b60006104e0878288016103c6565b94505060206104f1878288016103c6565b9350506040610502878288016103c6565b9250506060610513878288016103c6565b91505092959194509250565b610528816105e4565b82525050565b610537816105e4565b82525050565b6000602082019050610552600083018461051f565b92915050565b600060608201905061056d600083018661052e565b61057a602083018561052e565b610587604083018461052e565b949350505050565b6000604051905081810181811067ffffffffffffffff821117156105b257600080fd5b8060405250919050565b600067ffffffffffffffff8211156105d357600080fd5b602082029050602081019050919050565b6000819050919050565b6105f7816105e4565b811461060257600080fd5b5056fea26469706673582212202b3c7ae47e6b71176c5315f5cbb05e989eac9f716de2eb8ecb0e084ff07fd0c364736f6c63430006070033",
  "immutableReferences": {},
  "source": "pragma solidity ^0.6.7;\npragma experimental ABIEncoderV2;\n\nimport \"./CircomLib.sol\";\n\ncontract Hasher {\n  function hashMulti(uint256[] memory array, uint256 key)\n    public\n    pure\n    returns (uint256)\n  {\n    uint256 k = 21888242871839275222246405745257275088548364400416034343698204186575808495617;\n    uint256 R = 0;\n    uint256 C = 0;\n\n    for (uint256 i = 0; i < array.length; i++) {\n      R = addmod(R, array[i], k);\n      (R, C) = CircomLib.MiMCSponge(R, C, key);\n    }\n\n    return R;\n  }\n\n  function hashPair(uint256 left, uint256 right) public pure returns (uint256) {\n    uint256[] memory arr = new uint256[](2);\n    arr[0] = left;\n    arr[1] = right;\n\n    return hashMulti(arr, 0);\n  }\n\n  function hashBalanceTreeLeaf(\n    uint256 publicKeyX,\n    uint256 publicKeyY,\n    uint256 balance,\n    uint256 nonce\n  ) public pure returns (uint256) {\n    uint256[] memory arr = new uint256[](4);\n    arr[0] = publicKeyX;\n    arr[1] = publicKeyY;\n    arr[2] = balance;\n    arr[3] = nonce;\n\n    return hashMulti(arr, 0);\n  }\n}\n",
  "sourcePath": "/Users/bgu/scratch/linking-test/contracts/Hasher.sol",
  "compiler": {
    "name": "solc",
    "version": "0.6.7+commit.b8d736ae.Emscripten.clang"
  },
  "schemaVersion": "3.3.1",
  "updatedAt": "2020-10-27T17:39:47.480Z",
  "networkType": "ethereum",
  "devdoc": {
    "methods": {}
  },
  "userdoc": {
    "methods": {}
  }
}